:100000000C942A000C9447000C9447000C94470071
:100010000C9447000C9447000C9447000C94470044
:100020000C9447000C9447000C94750B0C943D0BFA
:100030000C9447000C9447000C9447000C94470024
:100040000C9447000C9447000C9447000C94470014
:100050000C94470011241FBECFE5D4E0DEBFCDBF16
:1000600010E0A0E6B0E0E0E9FEE102C005900D92EC
:10007000AE37B107D9F710E0AEE7B0E001C01D928E
:10008000A439B107E1F70E94A80B0C94460F0C9419
:100090000000EF92FF920F931F937B018C0120E0F1
:1000A00030E040E05FE40E94490388238CF0C801FF
:1000B000B70120E030E040E05FE40E94C1010E940F
:1000C000A9039B01AC01205030404040504806C07D
:1000D000C801B7010E94A9039B01AC01B901CA0183
:1000E0001F910F91FF90EF900895A0E0B0E0EBE733
:1000F000F0E00C940F0FDC012B01FA019C9192307F
:1001000008F439C1EB018881823008F433C194309E
:1001100069F4843009F02FC111969C91119789815F
:10012000981709F428C1A0E6B0E025C1843009F48D
:1001300021C18230A9F4923009F01DC19A01AD01AC
:1001400088E0EA010990AE01E90109929E0181501F
:10015000C1F7E201898111969C918923818308C1AD
:10016000923009F407C112962D903C901397EB0141
:100170008A819B811496AD90BD90CD90DC901797AD
:10018000EC80FD800E811F819101281B390BB90184
:1001900037FF04C066277727621B730B6032710537
:1001A0000CF061C0121613066CF537014801062EDB
:1001B00004C096948794779467940A94D2F721E0C8
:1001C00030E040E050E004C0220F331F441F551FB1
:1001D0006A95D2F721503040404050402E213F21B7
:1001E00040235123211531054105510521F021E01E
:1001F00030E040E050E079018A01E628F72808293C
:1002000019293CC0232BD1F1260E371E350146019A
:10021000062E04C096948794779467940A94D2F734
:1002200021E030E040E050E004C0220F331F441FC3
:10023000551F6A95D2F721503040404050402A2146
:100240003B214C215D21211531054105510521F04E
:1002500021E030E040E050E059016A01A628B728CB
:10026000C828D9280BC0821593052CF01C01AA249C
:10027000BB24650103C0EE24FF24870111969C91E5
:10028000D20111968C91981709F445C0992339F041
:10029000A80197012A193B094C095D0906C0A6016E
:1002A00095012E193F09400B510B57FD08C01182D3
:1002B0003382228224833583468357831DC081E0A5
:1002C00081833382228288279927DC01821B930B4A
:1002D000A40BB50B84839583A683B7830DC0220F2F
:1002E000331F441F551F24833583468357838281E0
:1002F000938101979383828324813581468157813D
:10030000DA01C9010197A109B1098F5F9F4FAF4F72
:10031000BF4328F30BC0918333822282EA0CFB1C7B
:100320000C1D1D1DE482F5820683178383E0808304
:10033000248135814681578157FF1AC0C901AA27F8
:1003400097FDA095BA2F81709070A070B0705695EF
:10035000479537952795822B932BA42BB52B848318
:100360009583A683B7838281938101969383828349
:10037000DF0101C0D201CD01CDB7DEB7E2E10C94BF
:100380002B0FA0E2B0E0E7ECF1E00C941B0F6983C7
:100390007A838B839C832D833E834F835887E9E048
:1003A000EE2EF12CEC0EFD1ECE010196B7010E943F
:1003B000D2048E010F5E1F4FCE010596B8010E9438
:1003C000D2048A8991E089278A8BC701B801AE01DE
:1003D000475E5F4F0E9475000E94FD03A096E6E015
:1003E0000C94370FA0E2B0E0E8EFF1E00C941B0FA3
:1003F00069837A838B839C832D833E834F835887C5
:10040000F9E0EF2EF12CEC0EFD1ECE010196B701A6
:100410000E94D2048E010F5E1F4FCE010596B801D7
:100420000E94D204C701B801AE01475E5F4F0E942F
:1004300075000E94FD03A096E6E00C94370FA0E241
:10044000B0E0E5E2F2E00C940F0F69837A838B83CE
:100450009C832D833E834F835887CE010196BE0136
:10046000675F7F4F0E94D204CE010596BE016F5E8A
:100470007F4F0E94D2049985923088F0898982301A
:10048000C8F0943019F4823051F404C0843029F457
:10049000923081F480E690E0C6C0923049F420E0CA
:1004A0009A858A89981321E02A87CE010996BBC0D4
:1004B000823049F420E09A858A89981321E02A8BBA
:1004C000CE014196B0C02D843E844F8458886D88FB
:1004D0007E888F88988CEE24FF248701AA24BB2471
:1004E000650140E050E060E070E0E0E0F0E0C10174
:1004F00081709070892BE9F0E60CF71C081D191D1E
:100500009A01AB012A0D3B1D4C1D5D1D80E090E062
:10051000A0E0B0E0E614F7040805190520F481E036
:1005200090E0A0E0B0E0BA01A901480F591F6A1F8E
:100530007B1FAA0CBB1CCC1CDD1C97FE08C081E0F5
:1005400090E0A0E0B0E0A82AB92ACA2ADB2A3196B6
:10055000E032F10549F0660C771C881C991C569412
:10056000479437942794C3CFFA85EA892B893C892D
:100570008B859C85280F391F2E5F3F4F17C0CA01FE
:1005800081709070892B61F016950795F794E79428
:1005900080E090E0A0E0B0E8E82AF92A0A2B1B2BC3
:1005A00076956795579547952F5F3F4F77FDE7CF36
:1005B0000CC0440F551F661F771F17FD4160EE0CDE
:1005C000FF1C001F111F21503040403090E05907A0
:1005D00090E0690790E4790760F32B8F3C8FDB0193
:1005E000CA018F779070A070B07080349105A1051A
:1005F000B10561F447FD0AC0E114F10401051105DC
:1006000029F0405C5F4F6F4F7F4F40781A8EFE1786
:1006100011F081E08A8F4D8F5E8F6F8F78A383E01A
:10062000898FCE0149960E94FD03A096E2E10C94C9
:100630002B0FA8E1B0E0EFE1F3E00C941B0F69830E
:100640007A838B839C832D833E834F83588789E0F5
:10065000E82EF12CEC0EFD1ECE010196B7010E9492
:10066000D2048E010F5E1F4FCE010596B8010E9485
:10067000D2048985823040F08989823028F0C70110
:10068000B8010E944A0501C08FEF6896E6E00C941D
:10069000370FA8E1B0E0EFE4F3E00C941B0F69839F
:1006A0007A838B839C832D833E834F83588789E095
:1006B000E82EF12CEC0EFD1ECE010196B7010E9432
:1006C000D2048E010F5E1F4FCE010596B8010E9425
:1006D000D2048985823040F08989823028F0C701B0
:1006E000B8010E944A0501C08FEF6896E6E00C94BD
:1006F000370FA8E1B0E0EFE7F3E00C941B0F69833C
:100700007A838B839C832D833E834F83588789E034
:10071000E82EF12CEC0EFD1ECE010196B7010E94D1
:10072000D2048E010F5E1F4FCE010596B8010E94C4
:10073000D2048985823040F08989823028F0C7014F
:10074000B8010E944A0501C081E06896E6E00C9479
:10075000370FACE0B0E0EFEAF3E00C941F0F6983D1
:100760007A838B839C83CE010196BE016B5F7F4FA2
:100770000E94D2048D81823061F1823050F1843048
:1007800021F48E81882351F12EC02F81388537FDC9
:1007900020C06E812F3131051CF06623F9F023C093
:1007A0008EE190E0821B930B29853A854B855C8511
:1007B00004C056954795379527958A95D2F76623B5
:1007C000B1F050954095309521953F4F4F4F5F4F79
:1007D0000EC020E030E040E050E009C02FEF3FEFD6
:1007E0004FEF5FE704C020E030E040E050E8B9019F
:1007F000CA012C96E2E00C943B0FDF92EF92FF923D
:100800000F931F93FC01E480F58006811781D1804E
:100810008081823048F480E090E0A0E1B0E0E82AF6
:10082000F92A0A2B1B2BA5C0843009F49FC0823003
:1008300021F4EE24FF24870105C0E114F104010531
:10084000110519F4E0E0F0E096C0628173819FEF3A
:10085000623879070CF05BC022E83FEF261B370BAC
:100860002A3131052CF020E030E040E050E02AC091
:10087000B801A701022E04C0769567955795479554
:100880000A94D2F781E090E0A0E0B0E004C0880FC5
:10089000991FAA1FBB1F2A95D2F70197A109B10979
:1008A0008E219F21A023B1230097A105B10521F03E
:1008B00081E090E0A0E0B0E09A01AB01282B392B59
:1008C0004A2B5B2BDA01C9018F779070A070B07052
:1008D00080349105A105B10539F427FF09C0205CDA
:1008E0003F4F4F4F5F4F04C0215C3F4F4F4F5F4F13
:1008F000E0E0F0E02030A0E03A07A0E04A07A0E402
:100900005A0710F0E1E0F0E079018A0127C0603871
:10091000710564F5FB01E158FF4FD801C7018F77DE
:100920009070A070B07080349105A105B10539F4C4
:10093000E7FE0DC080E490E0A0E0B0E004C08FE3EB
:1009400090E0A0E0B0E0E80EF91E0A1F1B1F17FFA1
:1009500005C016950795F794E794319687E01695AC
:100960000795F794E7948A95D1F705C0EE24FF2404
:100970008701EFEFF0E06E2F679566276795902F60
:100980009F77D794DD24D7948E2F8695492F462BB9
:10099000582F5D29B701CA011F910F91FF90EF9069
:1009A000DF900895FC01DB01408151812281622F9B
:1009B0006F7770E0221F2227221F9381892F880FD3
:1009C000822B282F30E0991F9927991F11969C930D
:1009D000119721153105A9F54115510561057105DD
:1009E00011F482E037C082E89FEF13969C938E93B8
:1009F00012979A01AB0167E0220F331F441F551F66
:100A00006A95D1F783E08C930DC0220F331F441FEA
:100A1000551F12968D919C911397019713969C9355
:100A20008E931297203080E0380780E0480780E4FA
:100A3000580758F314962D933D934D935C93179755
:100A400008952F3F310579F4411551056105710570
:100A500019F484E08C93089564FF03C081E08C93C3
:100A600012C01C9210C02F57304013963C932E9307
:100A7000129783E08C9387E0440F551F661F771F02
:100A80008A95D1F7706414964D935D936D937C9322
:100A9000179708951F93DC01FB019C91923008F495
:100AA00047C08081823008F443C0943051F41196DD
:100AB0001C91843099F58181682F70E0611B710968
:100AC0003FC0843021F0923031F48230B9F181811D
:100AD000882389F12DC011961C9111978230F1F075
:100AE00081811817D9F412962D913C911397828128
:100AF00093818217930794F028173907BCF0149656
:100B00008D919D910D90BC91A02D248135814681C0
:100B10005781281739074A075B0718F4112341F05A
:100B20000AC082179307A407B50740F4112319F0F0
:100B300061E070E005C06FEF7FEF02C060E070E041
:100B4000CB011F910895DF93CF9300D000D0CDB794
:100B5000DEB789836A83A4E5B0E0E4E5F0E087814D
:100B6000482F8981282F30E081E090E002C0880F73
:100B7000991F2A95E2F7842B17968C9317978981F2
:100B8000282F30E03C832B838B819C81863091051C
:100B900059F02B813C812730310589F08B819C8174
:100BA00085309105F1F02BC0A4E5B0E0E4E5F0E07C
:100BB00091818A81892B11968C93119720C0A4E58D
:100BC000B0E0E4E5F0E08181282F8A81882F90E071
:100BD000880F991F880F991F822B11968C9311975C
:100BE0000EC0E4E5F0E08A8181708170982F9295C3
:100BF000990F990F907C80818F7B892B80830F9038
:100C00000F900F900F90CF91DF910895DF93CF93C6
:100C10000F92CDB7DEB78983A4E5B0E0E4E5F0E05C
:100C20008781482F8981282F30E081E090E0022ED3
:100C300002C0880F991F0A94E2F7809584231796C3
:100C40008C9317970F90CF91DF910895DF93CF93F7
:100C500000D00F92CDB7DEB79A8389836B838B81E7
:100C6000882F90E00597880F991FFC01E258FF4FED
:100C700089819A81918380830F900F900F90CF91FB
:100C8000DF910895DF93CF93CDB7DEB77894CF91FE
:100C9000DF910895DF93CF93CDB7DEB7F894CF916E
:100CA000DF910895DF93CF9300D000D000D0CDB76F
:100CB000DEB79A8389836B834C838B81282F30E046
:100CC0003E832D838D819E818330910509F451C02F
:100CD0002D813E81243031057CF48D819E818130CF
:100CE000910571F12D813E8122303105ACF58D8168
:100CF0009E810097D1F081C02D813E812530310544
:100D000009F452C08D819E81853091050CF43FC05D
:100D10002D813E812630310509F454C08D819E819C
:100D20008730910509F45DC068C08C818170E981CC
:100D3000FA81982F917081818E7F892B81835DC08C
:100D40008C818170E981FA818170982F990F81815E
:100D50008D7F892B818351C08C818170E981FA81DB
:100D60008170982F990F990F81818B7F892B8183B7
:100D700044C08C818170E981FA818170982F990F2C
:100D8000990F990F8181877F892B818336C08C8150
:100D90008170E981FA818170982F9295907F81818D
:100DA0008F7E892B818329C08C818170E981FA81B2
:100DB0008170982F9295990F907E81818F7D892BDC
:100DC00081831BC08C818170E981FA818170982FA9
:100DD0009295990F990F907C81818F7B892B8183CC
:100DE0000CC08C818170E981FA81982F97959927A1
:100DF000979581818F77892B818326960FB6F894FA
:100E0000DEBF0FBECDBFCF91DF910895DF93CF93AB
:100E100000D000D000D0CDB7DEB79A8389836B8332
:100E20004C838B81282F30E03E832D838D819E81E2
:100E30008330910509F451C02D813E812430310564
:100E40007CF48D819E818130910571F12D813E81EF
:100E500022303105ACF58D819E810097D1F081C0A3
:100E60002D813E812530310509F452C08D819E814E
:100E7000853091050CF43FC02D813E81263031052F
:100E800009F454C08D819E818730910509F45DC0BD
:100E900068C08C818170E981FA81982F917082817C
:100EA0008E7F892B82835DC08C818170E981FA817C
:100EB0008170982F990F82818D7F892B828351C0F9
:100EC0008C818170E981FA818170982F990F990F37
:100ED00082818B7F892B828344C08C818170E981E0
:100EE000FA818170982F990F990F990F8281877FCE
:100EF000892B828336C08C818170E981FA8181706F
:100F0000982F9295907F82818F7E892B828329C032
:100F10008C818170E981FA818170982F9295990F67
:100F2000907E82818F7D892B82831BC08C81817012
:100F3000E981FA818170982F9295990F990F907C91
:100F400082818F7B892B82830CC08C818170E981A7
:100F5000FA81982F97959927979582818F77892B7A
:100F6000828326960FB6F894DEBF0FBECDBFCF9119
:100F7000DF910895DF93CF93CDB7DEB727970FB6F4
:100F8000F894DEBF0FBECDBF9B838A836C838C81B8
:100F9000282F30E03F832E838E819F8183309105FF
:100FA00009F43EC02E813F81243031057CF48E81CE
:100FB0009F818130910529F12E813F8122303105B9
:100FC0003CF58E819F810097B1F055C02E813F8105
:100FD00025303105B1F18E819F81853091054CF12D
:100FE0002E813F8126303105A9F18E819F81873086
:100FF0009105D1F140C0EA81FB81808181708983B4
:101000003AC0EA81FB81808186958170898333C0F3
:10101000EA81FB8180818695869581708D832DC0C4
:10102000EA81FB81808186958695869581708D8386
:1010300024C0EA81FB81808182958F7081708D83CD
:101040001CC0EA81FB8180818295869587708170C2
:10105000898311C0EA81FB8180818295869586957E
:1010600083708170898307C0EA81FB818081881F3A
:101070008827881F898399819D838D8127960FB644
:10108000F894DEBF0FBECDBFCF91DF910895DF93FF
:10109000CF9300D00F92CDB7DEB79A8389836B834D
:1010A000E981FA818B8181830F900F900F90CF910E
:1010B000DF910895DF93CF9300D00F92CDB7DEB7C5
:1010C0009A8389836B83E981FA818B8182830F9074
:1010D0000F900F90CF91DF910895DF93CF9300D0C1
:1010E000CDB7DEB79A838983E981FA8182810F9037
:1010F0000F90CF91DF910895DF93CF9300D00F929F
:10110000CDB7DEB79A8389836B8389819A816B819E
:1011100041E00E9406070F900F900F90CF91DF9152
:101120000895DF93CF9300D00F92CDB7DEB79A83A7
:1011300089836B8389819A816B8140E00E940607D5
:101140000F900F900F90CF91DF910895DF93CF9381
:1011500000D000D000D0CDB7DEB79B838A836C83EC
:101160008C81282F30E03E832D838D819E818330BA
:10117000910509F43EC02D813E81243031057CF477
:101180008D819E818130910529F12D813E81223012
:1011900031053CF58D819E810097B1F055C02D81C0
:1011A0003E8125303105B1F18D819E8185309105DB
:1011B0004CF12D813E8126303105A9F18D819E8132
:1011C00087309105D1F140C0EA81FB818081817037
:1011D00089833AC0EA81FB81808186958170898309
:1011E00033C0EA81FB8180818695869581708983F1
:1011F0002BC0EA81FB8180818695869586958170DA
:10120000898322C0EA81FB81808182958F70817001
:1012100089831AC0EA81FB818081829586958770D7
:101220008170898311C0EA81FB81808182958695D6
:10123000869583708170898307C0EA81FB818081F4
:10124000881F8827881F8983898126960FB6F8947E
:10125000DEBF0FBECDBFCF91DF910895DF93CF9357
:1012600000D0CDB7DEB79A838983A2E5B0E0E981EB
:10127000FA8180818170817081708170982F929540
:10128000990F990F907C11968C9111978F7B892BD8
:1012900011968C93A2E5B0E0E981FA818081869570
:1012A0008170817081708170982F990F990F990FBB
:1012B00011968C911197877F892B11968C9311979A
:1012C000E981FA818081823029F0E981FA81808187
:1012D000882331F4E2E5F0E081818068818305C0F4
:1012E000E2E5F0E081818F778183A2E5B0E0E981DA
:1012F000FA8182818170817081708170982F9295BE
:10130000907F11968C9111978F7E892B11968C93DB
:10131000A2E5B0E0E981FA818281869581708170D1
:1013200081708170982F9295990F907E11968C9173
:1013300011978F7D892B11968C93A2E5B0E0E2E5A1
:10134000F0E08181982FE981FA8181818F76892B64
:1013500011968C931197109284000F900F90CF915B
:10136000DF910895DF93CF930F92CDB7DEB78983D6
:10137000A2E5B0E0E2E5F0E08181982F89818079F3
:10138000892311968C93A2E5B0E0E2E5F0E081813B
:10139000982F89818F76892B11968C9311971092B3
:1013A00084000F90CF91DF910895DF93CF93CDB755
:1013B000DEB7A2E5B0E0E2E5F0E081818079119648
:1013C0008C931197CF91DF910895DF93CF93CDB791
:1013D000DEB780918400882F90E0CF91DF9108954F
:1013E000DF93CF93CDB7DEB780918B0090918C00C7
:1013F000019690938C0080938B0020918B0030910C
:101400008C0080918D0090918E002817390739F457
:1014100081E080938A0010928C0010928B00CF9113
:10142000DF910895DF93CF93CDB7DEB763970FB603
:10143000F894DEBF0FBECDBF6D877E878F87988BF8
:10144000498BE2E5F0E081818F760E94B209E2E506
:10145000F0E08181882F90E08F7690709B8B8A8B53
:101460008A899B8999232CF48A899B890F969B8B67
:101470008A8B8A899B89959587959595879595956A
:10148000879595958795AA2797FDA095BA2F898767
:101490009A87AB87BC878D859E85AF85B88928EEF6
:1014A00033E040E050E0BC01CD010E94CE0EDC01F3
:1014B000CB0129853A854B855C85BC01CD010E9415
:1014C000ED0EDA01C9018D839E83AF83B8878D81CC
:1014D0009E81AF81B885892F9A2FAB2FBB27909320
:1014E0008E0080938D008D819E81AF81B885907034
:1014F000A070B07089839A83AB83BC8389819A8101
:10150000AB81BC810097A105B10571F080918D0080
:1015100090918E00019690938E0080938D00E2E56D
:10152000F0E089818195808380EF99E060E00E94FE
:10153000EE0A80918A008823E1F310928A00639674
:101540000FB6F894DEBF0FBECDBFCF91DF910895E7
:10155000DF93CF930F92CDB7DEB78983898188233C
:1015600051F4A2E5B0E0E2E5F0E0878181601796F2
:101570008C9317970CC08981823049F4A2E5B0E0C2
:10158000E2E5F0E08781826017968C9317970F90C1
:10159000CF91DF910895DF93CF930F92CDB7DEB750
:1015A00089838981882351F4A2E5B0E0E2E5F0E087
:1015B00087818E7F17968C9317970CC08981823014
:1015C00049F4A2E5B0E0E2E5F0E087818D7F17966F
:1015D0008C9317970F90CF91DF910895DF93CF935E
:1015E00000D00F92CDB7DEB79A8389836B838B814E
:1015F000882F90E0880F991FFC01EA57FF4F8981DF
:101600009A81918380830F900F900F90CF91DF91FB
:101610000895DF93CF9300D000D000D0CDB7DEB7D0
:1016200069837A838B839C83E2E5F0E08181E2E544
:10163000F0E0818126960FB6F894DEBF0FBECDBFD5
:10164000CF91DF910895DF93CF9300D000D000D0E9
:10165000CDB7DEB769837A838B839C83E2E5F0E0C4
:101660008181E2E5F0E0818126960FB6F894DEBF35
:101670000FBECDBFCF91DF9108951F920F920FB68D
:101680000F9211242F933F934F935F936F937F9308
:101690008F939F93AF93BF93EF93FF93DF93CF937A
:1016A000CDB7DEB7809184008F5F809384008091F6
:1016B000860090918700009729F0E0918600F091D4
:1016C00087000995CF91DF91FF91EF91BF91AF9185
:1016D0009F918F917F916F915F914F913F912F914A
:1016E0000F900FBE0F901F9018951F920F920FB67C
:1016F0000F9211242F933F934F935F936F937F9398
:101700008F939F93AF93BF93EF93FF93DF93CF9309
:10171000CDB7DEB78091880090918900009729F0BD
:10172000E0918800F09189000995CF91DF91FF91B8
:10173000EF91BF91AF919F918F917F916F915F9149
:101740004F913F912F910F900FBE0F901F901895C2
:10175000DF93CF93CDB7DEB728970FB6F894DEBFEF
:101760000FBECDBF86E390E060E041E00E945206EC
:1017700083E390E060E041E00E94520680E390E065
:1017800060E041E00E94520683E390E067E040E0C1
:101790000E94520686E390E060E040E00E94060767
:1017A00083E390E060E040E00E94060780E390E081
:1017B00060E040E00E940607CE0101969D838C8385
:1017C000EAE7F0E0FF83EE83F3E0F887EE81FF8144
:1017D00000808E819F8101969F838E83EC81FD81A5
:1017E00000828C819D8101969D838C839885915088
:1017F0009887E885EE2351F7CE0101960E942E09C5
:1018000085E59EE060E00E94EE0A80E00E94A80A62
:101810000E944206FFCFDF93CF9300D00F92CDB747
:10182000DEB79A8389836B83E981FA818281482FAD
:101830008B81282F30E081E090E0022E02C0880FDB
:10184000991F0A94E2F78427E981FA8182830F9035
:101850000F900F90CF91DF910895DF93CF93CDB785
:10186000DEB76C970FB6F894DEBF0FBECDBF86E330
:1018700090E060E041E00E94060780E090E0A8E48C
:10188000B3E4898F9A8FAB8FBC8F698D7A8D8B8DE6
:101890009C8D20E030E04AE753E40E941F02DC0107
:1018A000CB018D8B9E8BAF8BB88F6D897E898F8995
:1018B000988D20E030E040E85FE30E9479038823C0
:1018C0002CF481E090E09C8B8B8B3FC06D897E89EE
:1018D0008F89988D20E03FEF4FE757E40E9419036E
:1018E00018164CF5698D7A8D8B8D9C8D20E030E03B
:1018F00040E251E40E941F02DC01CB01BC01CD019A
:101900000E944900DC01CB019C8B8B8B0FC089E1CD
:1019100090E09A8B898B89899A890197F1F79A8B44
:10192000898B8B899C8901979C8B8B8B8B899C895C
:10193000009769F714C06D897E898F89988D0E9400
:101940004900DC01CB019C8B8B8B8B899C89988B0C
:101950008F878F8598890197F1F7988B8F8786E31A
:1019600090E060E040E00E94060780E090E0A8E49C
:10197000B3E48B879C87AD87BE876B857C858D851F
:101980009E8520E030E04AE753E40E941F02DC011C
:10199000CB018F839887A987BA876F8178858985DE
:1019A0009A8520E030E040E85FE30E9479038823D5
:1019B0002CF481E090E09E838D833FC06F81788519
:1019C00089859A8520E03FEF4FE757E40E9419038D
:1019D00018164CF56B857C858D859E8520E030E062
:1019E00040E251E40E941F02DC01CB01BC01CD01A9
:1019F0000E944900DC01CB019E838D830FC089E1E9
:101A000090E09C838B838B819C810197F1F79C8371
:101A10008B838D819E8101979E838D838D819E8195
:101A2000009769F714C06F81788589859A850E942F
:101A30004900DC01CB019E838D838D819E819A8339
:101A4000898389819A810197F1F79A8389836C96BA
:101A50000FB6F894DEBF0FBECDBFCF91DF910895D2
:101A6000DF93CF93CDB7DEB783E390E067E00E94CA
:101A7000BA078130A1F4A3E3B0E0E3E3F0E08281B0
:101A80008170982F81E089278170982F917012962C
:101A90008C9112978E7F892B12968C931297CF91EF
:101AA000DF910895DF93CF93CDB7DEB76C970FB674
:101AB000F894DEBF0FBECDBF80E390E060E041E070
:101AC0000E94060780E090E0A8E4B3E4898F9A8F33
:101AD000AB8FBC8F698D7A8D8B8D9C8D20E030E033
:101AE0004AE753E40E941F02DC01CB018D8B9E8BE1
:101AF000AF8BB88F6D897E898F89988D20E030E01B
:101B000040E85FE30E94790388232CF481E090E0B1
:101B10009C8B8B8B3FC06D897E898F89988D20E04F
:101B20003FEF4FE757E40E94190318164CF5698DF3
:101B30007A8D8B8D9C8D20E030E040E251E40E9454
:101B40001F02DC01CB01BC01CD010E944900DC0178
:101B5000CB019C8B8B8B0FC089E190E09A8B898B9A
:101B600089899A890197F1F79A8B898B8B899C894E
:101B700001979C8B8B8B8B899C89009769F714C08C
:101B80006D897E898F89988D0E944900DC01CB0187
:101B90009C8B8B8B8B899C89988B8F878F85988961
:101BA0000197F1F7988B8F8780E390E060E040E049
:101BB0000E94060780E090E0A8E4B3E48B879C874E
:101BC000AD87BE876B857C858D859E8520E030E066
:101BD0004AE753E40E941F02DC01CB018F83988700
:101BE000A987BA876F81788589859A8520E030E05A
:101BF00040E85FE30E94790388232CF481E090E0C1
:101C00009E838D833FC06F81788589859A8520E08A
:101C10003FEF4FE757E40E94190318164CF56B8508
:101C20007C858D859E8520E030E040E251E40E9475
:101C30001F02DC01CB01BC01CD010E944900DC0187
:101C4000CB019E838D830FC089E190E09C838B83C1
:101C50008B819C810197F1F79C838B838D819E8181
:101C600001979E838D838D819E81009769F714C0B3
:101C70006F81788589859A850E944900DC01CB01B6
:101C80009E838D838D819E819A83898389819A81A8
:101C90000197F1F79A8389836C960FB6F894DEBFAB
:101CA0000FBECDBFCF91DF910895EF92FF920F93BA
:101CB0001F93DF93CF9300D0CDB7DEB78091900014
:101CC00090919100A0919200B09193000196A11D76
:101CD000B11D8093900090939100A0939200B093D7
:101CE00093001A82198237C0E0909000F090910022
:101CF000009192001091930029813A81C901880FC7
:101D0000991F820F931F880F991FFC01E859FF4FFD
:101D10002081318142815381C801B7010E94ED0EBB
:101D2000DC01CB010097A105B10581F429813A813D
:101D3000C901880F991F820F931F880F991FFC01FB
:101D4000E459FF4F0190F081E02D099589819A8136
:101D500001969A83898389819A818330910524F23F
:101D60008091900090919100A0919200B091930089
:101D7000843B9105A105B10541F4109290001092A9
:101D8000910010929200109293000F900F90CF91BB
:101D9000DF911F910F91FF90EF900895629FD00106
:101DA000739FF001829FE00DF11D649FE00DF11D16
:101DB000929FF00D839FF00D749FF00D659FF00DC5
:101DC0009927729FB00DE11DF91F639FB00DE11DB2
:101DD000F91FBD01CF0111240895A1E21A2EAA1BFB
:101DE000BB1BFD010DC0AA1FBB1FEE1FFF1FA217CB
:101DF000B307E407F50720F0A21BB30BE40BF50BC8
:101E0000661F771F881F991F1A9469F76095709550
:101E1000809590959B01AC01BD01CF0108952F9253
:101E20003F924F925F926F927F928F929F92AF926A
:101E3000BF92CF92DF92EF92FF920F931F93CF93B7
:101E4000DF93CDB7DEB7CA1BDB0B0FB6F894DEBF4E
:101E50000FBECDBF09942A88398848885F846E8474
:101E60007D848C849B84AA84B984C884DF80EE80BE
:101E7000FD800C811B81AA81B981CE0FD11D0FB6C7
:101E8000F894DEBF0FBECDBFED010895F894FFCFEB
:101E900000000000000000003C0000002D0C1E00AF
:0E1EA0000000300DB4000000520D00050000DF
:00000001FF
