:100000000C942A000C9447000C9447000C94470071
:100010000C9447000C9447000C9447000C94470044
:100020000C9447000C9447000C9499160C945D16A0
:100030000C9447000C9447000C9447000C94470024
:100040000C9447000C9447000C9447000C94470014
:100050000C94470011241FBECFE5D4E0DEBFCDBF16
:1000600010E0A0E6B0E0E6E8F0E302C005900D92F3
:10007000A03BB107D9F710E0A0EBB0E001C01D92A2
:10008000A23CB107E1F70E94CC160C9441180C94E5
:100090000000EF92FF920F931F937B018C0120E0F1
:1000A00030E040E05FE40E94490388238CF0C801FF
:1000B000B70120E030E040E05FE40E94C1010E940F
:1000C000A9039B01AC01205030404040504806C07D
:1000D000C801B7010E94A9039B01AC01B901CA0183
:1000E0001F910F91FF90EF900895A0E0B0E0EBE733
:1000F000F0E00C940A18DC012B01FA019C9192307B
:1001000008F439C1EB018881823008F433C194309E
:1001100069F4843009F02FC111969C91119789815F
:10012000981709F428C1A5E8B0E025C1843009F486
:1001300021C18230A9F4923009F01DC19A01AD01AC
:1001400088E0EA010990AE01E90109929E0181501F
:10015000C1F7E201898111969C918923818308C1AD
:10016000923009F407C112962D903C901397EB0141
:100170008A819B811496AD90BD90CD90DC901797AD
:10018000EC80FD800E811F819101281B390BB90184
:1001900037FF04C066277727621B730B6032710537
:1001A0000CF061C0121613066CF537014801062EDB
:1001B00004C096948794779467940A94D2F721E0C8
:1001C00030E040E050E004C0220F331F441F551FB1
:1001D0006A95D2F721503040404050402E213F21B7
:1001E00040235123211531054105510521F021E01E
:1001F00030E040E050E079018A01E628F72808293C
:1002000019293CC0232BD1F1260E371E350146019A
:10021000062E04C096948794779467940A94D2F734
:1002200021E030E040E050E004C0220F331F441FC3
:10023000551F6A95D2F721503040404050402A2146
:100240003B214C215D21211531054105510521F04E
:1002500021E030E040E050E059016A01A628B728CB
:10026000C828D9280BC0821593052CF01C01AA249C
:10027000BB24650103C0EE24FF24870111969C91E5
:10028000D20111968C91981709F445C0992339F041
:10029000A80197012A193B094C095D0906C0A6016E
:1002A00095012E193F09400B510B57FD08C01182D3
:1002B0003382228224833583468357831DC081E0A5
:1002C00081833382228288279927DC01821B930B4A
:1002D000A40BB50B84839583A683B7830DC0220F2F
:1002E000331F441F551F24833583468357838281E0
:1002F000938101979383828324813581468157813D
:10030000DA01C9010197A109B1098F5F9F4FAF4F72
:10031000BF4328F30BC0918333822282EA0CFB1C7B
:100320000C1D1D1DE482F5820683178383E0808304
:10033000248135814681578157FF1AC0C901AA27F8
:1003400097FDA095BA2F81709070A070B0705695EF
:10035000479537952795822B932BA42BB52B848318
:100360009583A683B7838281938101969383828349
:10037000DF0101C0D201CD01CDB7DEB7E2E10C94BF
:100380002618A0E2B0E0E7ECF1E00C9416186983BF
:100390007A838B839C832D833E834F835887E9E048
:1003A000EE2EF12CEC0EFD1ECE010196B7010E943F
:1003B000D2048E010F5E1F4FCE010596B8010E9438
:1003C000D2048A8991E089278A8BC701B801AE01DE
:1003D000475E5F4F0E9475000E94FD03A096E6E015
:1003E0000C943218A0E2B0E0E8EFF1E00C9416189B
:1003F00069837A838B839C832D833E834F835887C5
:10040000F9E0EF2EF12CEC0EFD1ECE010196B701A6
:100410000E94D2048E010F5E1F4FCE010596B801D7
:100420000E94D204C701B801AE01475E5F4F0E942F
:1004300075000E94FD03A096E6E00C943218A0E23D
:10044000B0E0E5E2F2E00C940A1869837A838B83CA
:100450009C832D833E834F835887CE010196BE0136
:10046000675F7F4F0E94D204CE010596BE016F5E8A
:100470007F4F0E94D2049985923088F0898982301A
:10048000C8F0943019F4823051F404C0843029F457
:10049000923081F485E890E0C6C0923049F420E0C3
:1004A0009A858A89981321E02A87CE010996BBC0D4
:1004B000823049F420E09A858A89981321E02A8BBA
:1004C000CE014196B0C02D843E844F8458886D88FB
:1004D0007E888F88988CEE24FF248701AA24BB2471
:1004E000650140E050E060E070E0E0E0F0E0C10174
:1004F00081709070892BE9F0E60CF71C081D191D1E
:100500009A01AB012A0D3B1D4C1D5D1D80E090E062
:10051000A0E0B0E0E614F7040805190520F481E036
:1005200090E0A0E0B0E0BA01A901480F591F6A1F8E
:100530007B1FAA0CBB1CCC1CDD1C97FE08C081E0F5
:1005400090E0A0E0B0E0A82AB92ACA2ADB2A3196B6
:10055000E032F10549F0660C771C881C991C569412
:10056000479437942794C3CFFA85EA892B893C892D
:100570008B859C85280F391F2E5F3F4F17C0CA01FE
:1005800081709070892B61F016950795F794E79428
:1005900080E090E0A0E0B0E8E82AF92A0A2B1B2BC3
:1005A00076956795579547952F5F3F4F77FDE7CF36
:1005B0000CC0440F551F661F771F17FD4160EE0CDE
:1005C000FF1C001F111F21503040403090E05907A0
:1005D00090E0690790E4790760F32B8F3C8FDB0193
:1005E000CA018F779070A070B07080349105A1051A
:1005F000B10561F447FD0AC0E114F10401051105DC
:1006000029F0405C5F4F6F4F7F4F40781A8EFE1786
:1006100011F081E08A8F4D8F5E8F6F8F78A383E01A
:10062000898FCE0149960E94FD03A096E2E10C94C9
:100630002618A8E1B0E0EFE1F3E00C941618698306
:100640007A838B839C832D833E834F83588789E0F5
:10065000E82EF12CEC0EFD1ECE010196B7010E9492
:10066000D2048E010F5E1F4FCE010596B8010E9485
:10067000D2048985823040F08989823028F0C70110
:10068000B8010E944A0501C08FEF6896E6E00C941D
:100690003218A8E1B0E0EFE4F3E00C941618698397
:1006A0007A838B839C832D833E834F83588789E095
:1006B000E82EF12CEC0EFD1ECE010196B7010E9432
:1006C000D2048E010F5E1F4FCE010596B8010E9425
:1006D000D2048985823040F08989823028F0C701B0
:1006E000B8010E944A0501C08FEF6896E6E00C94BD
:1006F0003218A8E1B0E0EFE7F3E00C941618698334
:100700007A838B839C832D833E834F83588789E034
:10071000E82EF12CEC0EFD1ECE010196B7010E94D1
:10072000D2048E010F5E1F4FCE010596B8010E94C4
:10073000D2048985823040F08989823028F0C7014F
:10074000B8010E944A0501C081E06896E6E00C9479
:100750003218ACE0B0E0EFEAF3E00C941A186983C9
:100760007A838B839C83CE010196BE016B5F7F4FA2
:100770000E94D2048D81823061F1823050F1843048
:1007800021F48E81882351F12EC02F81388537FDC9
:1007900020C06E812F3131051CF06623F9F023C093
:1007A0008EE190E0821B930B29853A854B855C8511
:1007B00004C056954795379527958A95D2F76623B5
:1007C000B1F050954095309521953F4F4F4F5F4F79
:1007D0000EC020E030E040E050E009C02FEF3FEFD6
:1007E0004FEF5FE704C020E030E040E050E8B9019F
:1007F000CA012C96E2E00C943618DF92EF92FF9239
:100800000F931F93FC01E480F58006811781D1804E
:100810008081823048F480E090E0A0E1B0E0E82AF6
:10082000F92A0A2B1B2BA5C0843009F49FC0823003
:1008300021F4EE24FF24870105C0E114F104010531
:10084000110519F4E0E0F0E096C0628173819FEF3A
:10085000623879070CF05BC022E83FEF261B370BAC
:100860002A3131052CF020E030E040E050E02AC091
:10087000B801A701022E04C0769567955795479554
:100880000A94D2F781E090E0A0E0B0E004C0880FC5
:10089000991FAA1FBB1F2A95D2F70197A109B10979
:1008A0008E219F21A023B1230097A105B10521F03E
:1008B00081E090E0A0E0B0E09A01AB01282B392B59
:1008C0004A2B5B2BDA01C9018F779070A070B07052
:1008D00080349105A105B10539F427FF09C0205CDA
:1008E0003F4F4F4F5F4F04C0215C3F4F4F4F5F4F13
:1008F000E0E0F0E02030A0E03A07A0E04A07A0E402
:100900005A0710F0E1E0F0E079018A0127C0603871
:10091000710564F5FB01E158FF4FD801C7018F77DE
:100920009070A070B07080349105A105B10539F4C4
:10093000E7FE0DC080E490E0A0E0B0E004C08FE3EB
:1009400090E0A0E0B0E0E80EF91E0A1F1B1F17FFA1
:1009500005C016950795F794E794319687E01695AC
:100960000795F794E7948A95D1F705C0EE24FF2404
:100970008701EFEFF0E06E2F679566276795902F60
:100980009F77D794DD24D7948E2F8695492F462BB9
:10099000582F5D29B701CA011F910F91FF90EF9069
:1009A000DF900895FC01DB01408151812281622F9B
:1009B0006F7770E0221F2227221F9381892F880FD3
:1009C000822B282F30E0991F9927991F11969C930D
:1009D000119721153105A9F54115510561057105DD
:1009E00011F482E037C082E89FEF13969C938E93B8
:1009F00012979A01AB0167E0220F331F441F551F66
:100A00006A95D1F783E08C930DC0220F331F441FEA
:100A1000551F12968D919C911397019713969C9355
:100A20008E931297203080E0380780E0480780E4FA
:100A3000580758F314962D933D934D935C93179755
:100A400008952F3F310579F4411551056105710570
:100A500019F484E08C93089564FF03C081E08C93C3
:100A600012C01C9210C02F57304013963C932E9307
:100A7000129783E08C9387E0440F551F661F771F02
:100A80008A95D1F7706414964D935D936D937C9322
:100A9000179708951F93DC01FB019C91923008F495
:100AA00047C08081823008F443C0943051F41196DD
:100AB0001C91843099F58181682F70E0611B710968
:100AC0003FC0843021F0923031F48230B9F181811D
:100AD000882389F12DC011961C9111978230F1F075
:100AE00081811817D9F412962D913C911397828128
:100AF00093818217930794F028173907BCF0149656
:100B00008D919D910D90BC91A02D248135814681C0
:100B10005781281739074A075B0718F4112341F05A
:100B20000AC082179307A407B50740F4112319F0F0
:100B300061E070E005C06FEF7FEF02C060E070E041
:100B4000CB011F910895DF93CF93CDB7DEB72897E0
:100B50000FB6F894DEBF0FBECDBF86E390E063E032
:100B600041E00E94BB0686E390E060E041E00E9425
:100B7000BB0686E390E061E041E00E94BB0686E3AD
:100B800090E063E041E00E94BB06CE0101969D83A8
:100B90008C83EDEAF0E0FF83EE83F3E0F887EE81EB
:100BA000FF8100808E819F8101969F838E83EC81DF
:100BB000FD8100828C819D8101969D838C83988527
:100BC00091509887E885EE2351F7CE0101960E9457
:100BD000ED1328960FB6F894DEBF0FBECDBFCF91B0
:100BE000DF910895DF93CF9300D0CDB7DEB789832F
:100BF0006A83A6E3B0E0E6E3F0E08281982F9C7F71
:100C00008A81892B12968C9389810E9486150F9078
:100C10000F90CF91DF910895DF93CF9300D000D054
:100C2000CDB7DEB789836A83A4E5B0E0E4E5F0E000
:100C30008781482F8981282F30E081E090E002C031
:100C4000880F991F2A95E2F7842B17968C93179794
:100C50008981282F30E03C832B838B819C818630D7
:100C6000910559F02B813C812730310589F08B812A
:100C70009C8185309105F1F02BC0A4E5B0E0E4E55E
:100C8000F0E091818A81892B11968C93119720C075
:100C9000A4E5B0E0E4E5F0E08181282F8A81882F87
:100CA00090E0880F991F880F991F822B11968C93C3
:100CB00011970EC0E4E5F0E08A8181708170982F71
:100CC0009295990F990F907C80818F7B892B8083DF
:100CD0000F900F900F900F90CF91DF910895DF93B9
:100CE000CF930F92CDB7DEB78983A4E5B0E0E4E5FA
:100CF000F0E08781482F8981282F30E081E090E063
:100D0000022E02C0880F991F0A94E2F7809584236F
:100D100017968C9317970F90CF91DF910895DF93DB
:100D2000CF9300D00F92CDB7DEB79A8389836B83C0
:100D30008B81882F90E00597880F991FFC01E05563
:100D4000FF4F89819A81918380830F900F900F903C
:100D5000CF91DF910895DF93CF93CDB7DEB778942D
:100D6000CF91DF910895DF93CF93CDB7DEB7F8949D
:100D7000CF91DF910895DF93CF9300D000D000D0C2
:100D8000CDB7DEB79A8389836B834C838B81282F01
:100D900030E03E832D838D819E818330910509F45F
:100DA00051C02D813E81243031057CF48D819E819E
:100DB0008130910571F12D813E8122303105ACF5F4
:100DC0008D819E810097D1F081C02D813E8125309B
:100DD000310509F452C08D819E81853091050CF456
:100DE0003FC02D813E812630310509F454C08D81EC
:100DF0009E818730910509F45DC068C08C81817047
:100E0000E981FA81982F917081818E7F892B81836E
:100E10005DC08C818170E981FA818170982F990F72
:100E200081818D7F892B818351C08C818170E98183
:100E3000FA818170982F990F990F81818B7F892B6F
:100E4000818344C08C818170E981FA818170982FFF
:100E5000990F990F990F8181877F892B818336C0E4
:100E60008C818170E981FA818170982F9295907FB1
:100E700081818F7E892B818329C08C818170E9815A
:100E8000FA818170982F9295990F907E81818F7D44
:100E9000892B81831BC08C818170E981FA818170EB
:100EA000982F9295990F990F907C81818F7B892B38
:100EB00081830CC08C818170E981FA81982F97958C
:100EC0009927979581818F77892B818326960FB6F5
:100ED000F894DEBF0FBECDBFCF91DF910895DF93B1
:100EE000CF9300D000D000D0CDB7DEB79A838983EE
:100EF0006B834C838B81282F30E03E832D838D8143
:100F00009E818330910509F451C02D813E812430AA
:100F100031057CF48D819E818130910571F12D81A7
:100F20003E8122303105ACF58D819E810097D1F054
:100F300081C02D813E812530310509F452C08D815B
:100F40009E81853091050CF43FC02D813E81263075
:100F5000310509F454C08D819E818730910509F4D3
:100F60005DC068C08C818170E981FA81982F917091
:100F700082818E7F892B82835DC08C818170E98123
:100F8000FA818170982F990F82818D7F892B8283BE
:100F900051C08C818170E981FA818170982F990FFD
:100FA000990F82818B7F892B828344C08C818170D1
:100FB000E981FA818170982F990F990F990F828199
:100FC000877F892B828336C08C818170E981FA8189
:100FD0008170982F9295907F82818F7E892B82835A
:100FE00029C08C818170E981FA818170982F929556
:100FF000990F907E82818F7D892B82831BC08C818B
:101000008170E981FA818170982F9295990F990FDB
:10101000907C82818F7B892B82830CC08C81817034
:10102000E981FA81982F97959927979582818F77F3
:10103000892B828326960FB6F894DEBF0FBECDBFF4
:10104000CF91DF910895DF93CF93CDB7DEB7279788
:101050000FB6F894DEBF0FBECDBF9B838A836C832F
:101060008C81282F30E03F832E838E819F818330B7
:10107000910509F43EC02E813F81243031057CF476
:101080008E819F818130910529F12E813F8122300F
:1010900031053CF58E819F810097B1F055C02E81BE
:1010A0003F8125303105B1F18E819F8185309105D9
:1010B0004CF12E813F8126303105A9F18E819F812F
:1010C00087309105D1F140C0EA81FB818081817038
:1010D00089833AC0EA81FB8180818695817089830A
:1010E00033C0EA81FB8180818695869581708D83EE
:1010F0002DC0EA81FB8180818695869586958170D9
:101100008D8324C0EA81FB81808182958F708170FC
:101110008D831CC0EA81FB818081829586958770D2
:101120008170898311C0EA81FB81808182958695D7
:10113000869583708170898307C0EA81FB818081F5
:10114000881F8827881F898399819D838D81279691
:101150000FB6F894DEBF0FBECDBFCF91DF910895DB
:10116000DF93CF9300D00F92CDB7DEB79A838983F8
:101170006B83E981FA818B8181830F900F900F90AF
:10118000CF91DF910895DF93CF9300D00F92CDB729
:10119000DEB79A8389836B83E981FA818B818283AD
:1011A0000F900F900F90CF91DF910895DF93CF9321
:1011B00000D0CDB7DEB79A838983E981FA81828135
:1011C0000F900F90CF91DF910895DF93CF93CDB71C
:1011D000DEB7A3E3B0E0E3E3F0E081818C63119636
:1011E0008C93A3E3B0E0E3E3F0E082818C6312969A
:1011F0008C93A0E3B0E0E0E3F0E081818771119689
:101200008C931197CF91DF910895DF93CF93CDB752
:10121000DEB7A9970FB6F894DEBF0FBECDBF82E050
:101220008AA383E08BA384E08CA385E08DA383E075
:101230008EA385E08FA386E088A787E089A718A200
:101240001F8E5DC12F8D38A1CE018296FC01E20F69
:10125000F31F208183E390E0622F40E00E946F073C
:101260001E8E1D8EC1C02D8D3E8DCE018696FC0139
:10127000E20FF31F208180E390E0622F0E94230899
:10128000882309F0ACC080E090E0A0EFB1E4898F42
:101290009A8FAB8FBC8F698D7A8D8B8D9C8D20E062
:1012A00030E04AE753E40E941F02DC01CB018D8B42
:1012B0009E8BAF8BB88F6D897E898F89988D20E04A
:1012C00030E040E85FE30E94790388232CF481E05A
:1012D00090E09C8B8B8B3FC06D897E898F89988D28
:1012E00020E03FEF4FE757E40E94190318164CF532
:1012F000698D7A8D8B8D9C8D20E030E040E251E449
:101300000E941F02DC01CB01BC01CD010E944900FB
:10131000DC01CB019C8B8B8B0FC089E190E09A8B19
:10132000898B89899A890197F1F79A8B898B8B89A7
:101330009C8901979C8B8B8B8B899C89009769F783
:1013400014C06D897E898F89988D0E944900DC01C7
:10135000CB019C8B8B8B8B899C89988B8F878F85FE
:1013600098890197F1F7988B8F872D8D3E8DCE014F
:101370008696FC01E20FF31F208180E390E0622F4C
:101380000E942308882359F58F8D98A12D8D3E8DBD
:10139000880F991F880F991F820F931F880F991F1D
:1013A000FC01E357FF4F8081918189A32D8D3E8DF4
:1013B000CE018696FC01E20FF31F208180E390E0CE
:1013C000622F0E942308882389F389A1A9960FB66A
:1013D000F894DEBF0FBECDBFCF91DF9108958D8D04
:1013E0009E8D01969E8F8D8F8D8D9E8D8430910563
:1013F0000CF439CF2F8D38A1CE018296FC01E20F7B
:10140000F31F208183E390E0622F41E00E946F0789
:1014100080E090E0A0EAB1E48B879C87AD87BE872F
:101420006B857C858D859E8520E030E04AE753E41E
:101430000E941F02DC01CB018F839887A987BA879E
:101440006F81788589859A8520E030E040E85FE308
:101450000E94790388232CF481E090E09E838D83A1
:101460003FC06F81788589859A8520E03FEF4FE7FF
:1014700057E40E94190318164CF56B857C858D8501
:101480009E8520E030E040E251E40E941F02DC0132
:10149000CB01BC01CD010E944900DC01CB019E8340
:1014A0008D830FC089E190E09C838B838B819C812D
:1014B0000197F1F79C838B838D819E8101979E8399
:1014C0008D838D819E81009769F714C06F81788527
:1014D00089859A850E944900DC01CB019E838D831A
:1014E0008D819E819A83898389819A810197F1F701
:1014F0009A8389838F8D98A1019698A38F8F8F8D62
:1015000098A1843091050CF49DCE99CE0F931F9332
:10151000DF93CF93CDB7DEB7C455D0400FB6F89464
:10152000DEBF0FBECDBF89E390E063E041E00E94E3
:10153000BB0689E390E062E041E00E94BB0689E3DC
:1015400090E061E041E00E94BB0689E390E060E04A
:1015500041E00E94BB0689E390E065E041E00E9423
:10156000BB0689E390E066E041E00E94BB0689E3A8
:1015700090E066E040E00E946F07FE01EF5AFF4FE7
:1015800080E090E0A8ECB2E480839183A283B383EF
:101590008E01035B1F4FFE01EF5AFF4F6081718187
:1015A0008281938120E030E04AE753E40E941F02E9
:1015B000DC01CB01F80180839183A283B383FE0118
:1015C000E35BFF4F608171818281938120E030E095
:1015D00040E85FE30E947903882344F4FE01E55B61
:1015E000FF4F81E090E09183808364C0FE01E35B64
:1015F000FF4F608171818281938120E03FEF4FE74F
:1016000057E40E94190318160CF043C0FE01EF5A6C
:10161000FF4F608171818281938120E030E040E260
:1016200051E40E941F02DC01CB018E01055B1F4FBC
:10163000BC01CD010E944900DC01CB01F80191837E
:1016400080831FC0FE01E75BFF4F89E190E091833B
:101650008083FE01E75BFF4F808191810197F1F765
:10166000FE01E75BFF4F91838083DE01A55BBF4FE7
:10167000FE01E55BFF4F80819181019711969C935C
:101680008E93FE01E55BFF4F808191810097D1F63B
:1016900027C08E01055B1F4FFE01E35BFF4F60819A
:1016A0007181828193810E944900DC01CB01F801A4
:1016B00091838083DE01A95BBF4FFE01E55BFF4F95
:1016C000808191818D939C93FE01E95BFF4F808126
:1016D00091810197F1F7FE01E95BFF4F91838083D0
:1016E00082E00E94670EFE01ED5BFF4F80E090E01C
:1016F000A0E2B1E480839183A283B3838E01015C75
:101700001F4FFE01ED5BFF4F6081718182819381EC
:1017100020E030E04AE753E40E941F02DC01CB01E5
:10172000F80180839183A283B383FE01FF966081D9
:1017300071818281938120E030E040E85FE30E9484
:10174000790388232CF481E090E09EAF8DAF46C0F2
:10175000FE01FF96608171818281938120E03FEFDD
:101760004FE757E40E941903181664F5FE01ED5B7C
:10177000FF4F608171818281938120E030E040E2FF
:1017800051E40E941F02DC01CB01BC01CD010E948B
:101790004900DC01CB019EAF8DAF0FC089E190E025
:1017A0009CAF8BAF8BAD9CAD0197F1F79CAF8BAF2E
:1017B0008DAD9EAD01979EAF8DAF8DAD9EAD009767
:1017C00069F716C0FE01FF96608171818281938165
:1017D0000E944900DC01CB019EAF8DAF8DAD9EAD67
:1017E0009AAF89AF89AD9AAD0197F1F79AAF89AFFA
:1017F00088E20E94670E80E090E0A0E8BFE38DAB36
:101800009EABAFABB8AF6DA97EA98FA998AD20E014
:1018100030E04AE753E40E941F02DC01CB0189ABB0
:101820009AABABABBCAB69A97AA98BA99CA920E008
:1018300030E040E85FE30E94790388232CF481E0E4
:1018400090E098AB8FA73FC069A97AA98BA99CA902
:1018500020E03FEF4FE757E40E94190318164CF5BC
:101860006DA97EA98FA998AD20E030E040E251E457
:101870000E941F02DC01CB01BC01CD010E94490086
:10188000DC01CB0198AB8FA70FC089E190E09EA748
:101890008DA78DA59EA50197F1F79EA78DA78FA572
:1018A00098A9019798AB8FA78FA598A9009769F77A
:1018B00014C069A97AA98BA99CA90E944900DC01DE
:1018C000CB0198AB8FA78FA598A99CA78BA78BA5B9
:1018D0009CA50197F1F79CA78BA78EE00E94670E4D
:1018E00080E090E0A0E8BFE38FA398A7A9A7BAA7DC
:1018F0006FA178A589A59AA520E030E04AE753E4D6
:101900000E941F02DC01CB018BA39CA3ADA3BEA34D
:101910006BA17CA18DA19EA120E030E040E85FE3B7
:101920000E94790388232CF481E090E09AA389A394
:101930003FC06BA17CA18DA19EA120E03FEF4FE7AE
:1019400057E40E94190318164CF56FA178A589A5D4
:101950009AA520E030E040E251E40E941F02DC0141
:10196000CB01BC01CD010E944900DC01CB019AA34F
:1019700089A30FC089E190E098A38F8F8F8D98A1E4
:101980000197F1F798A38F8F89A19AA101979AA344
:1019900089A389A19AA1009769F714C06BA17CA1C2
:1019A0008DA19EA10E944900DC01CB019AA389A3CD
:1019B00089A19AA19E8F8D8F8D8D9E8D0197F1F7B4
:1019C0009E8F8D8F81E00E94670E80E090E0A0E204
:1019D000B1E4898F9A8FAB8FBC8F698D7A8D8B8D97
:1019E0009C8D20E030E04AE753E40E941F02DC01B6
:1019F000CB018D8B9E8BAF8BB88F6D897E898F8944
:101A0000988D20E030E040E85FE30E94790388236E
:101A10002CF481E090E09C8B8B8B3FC06D897E899C
:101A20008F89988D20E03FEF4FE757E40E9419031C
:101A300018164CF5698D7A8D8B8D9C8D20E030E0E9
:101A400040E251E40E941F02DC01CB01BC01CD0148
:101A50000E944900DC01CB019C8B8B8B0FC089E17C
:101A600090E09A8B898B89899A890197F1F79A8BF3
:101A7000898B8B899C8901979C8B8B8B8B899C890B
:101A8000009769F714C06D897E898F89988D0E94AF
:101A90004900DC01CB019C8B8B8B8B899C89988BBB
:101AA0008F878F8598890197F1F7988B8F8786E0CC
:101AB0000E94670E80E090E0A0E8BFE38B879C87E0
:101AC000AD87BE876B857C858D859E8520E030E067
:101AD0004AE753E40E941F02DC01CB018F83988701
:101AE000A987BA876F81788589859A8520E030E05B
:101AF00040E85FE30E94790388232CF481E090E0C2
:101B00009E838D833FC06F81788589859A8520E08B
:101B10003FEF4FE757E40E94190318164CF56B8509
:101B20007C858D859E8520E030E040E251E40E9476
:101B30001F02DC01CB01BC01CD010E944900DC0188
:101B4000CB019E838D830FC089E190E09C838B83C2
:101B50008B819C810197F1F79C838B838D819E8182
:101B600001979E838D838D819E81009769F714C0B4
:101B70006F81788589859A850E944900DC01CB01B7
:101B80009E838D838D819E819A83898389819A81A9
:101B90000197F1F79A838983CC5ADF4F0FB6F894F7
:101BA000DEBF0FBECDBFCF91DF911F910F91089582
:101BB000DF93CF93CDB7DEB72F970FB6F894DEBF84
:101BC0000FBECDBF8F8789E390E066E041E00E94C1
:101BD0006F078F850E94A01180E090E0A0E8BFE32E
:101BE0008B879C87AD87BE876B857C858D859E8521
:101BF00020E030E04AE753E40E941F02DC01CB0101
:101C00008F839887A987BA876F81788589859A8518
:101C100020E030E040E85FE30E94790388232CF461
:101C200081E090E09E838D833FC06F8178858985B8
:101C30009A8520E03FEF4FE757E40E9419031816FA
:101C40004CF56B857C858D859E8520E030E040E2FB
:101C500051E40E941F02DC01CB01BC01CD010E94B6
:101C60004900DC01CB019E838D830FC089E190E0A8
:101C70009C838B838B819C810197F1F79C838B8361
:101C80008D819E8101979E838D838D819E8100979A
:101C900069F714C06F81788589859A850E9449000B
:101CA000DC01CB019E838D838D819E819A83898304
:101CB00089819A810197F1F79A8389832F960FB6CC
:101CC000F894DEBF0FBECDBFCF91DF910895DF93B3
:101CD000CF93CDB7DEB72F970FB6F894DEBF0FBE08
:101CE000CDBF8F8789E390E066E040E00E946F07F8
:101CF0008F850E94A01180E090E0A0E8BFE38B8771
:101D00009C87AD87BE876B857C858D859E8520E011
:101D100030E04AE753E40E941F02DC01CB018F83CD
:101D20009887A987BA876F81788589859A8520E009
:101D300030E040E85FE30E94790388232CF481E0DF
:101D400090E09E838D833FC06F81788589859A85D9
:101D500020E03FEF4FE757E40E94190318164CF5B7
:101D60006B857C858D859E8520E030E040E251E4E6
:101D70000E941F02DC01CB01BC01CD010E94490081
:101D8000DC01CB019E838D830FC089E190E09C83B1
:101D90008B838B819C810197F1F79C838B838D8151
:101DA0009E8101979E838D838D819E81009769F727
:101DB00014C06F81788589859A850E944900DC016D
:101DC000CB019E838D838D819E819A8389838981B6
:101DD0009A810197F1F79A8389832F960FB6F89429
:101DE000DEBF0FBECDBFCF91DF910895DF93CF93BC
:101DF00000D000D0CDB7DEB79C838B831A821982C6
:101E00000FC029813A818B819C81FC01E20FF31F75
:101E100080810E94D80D89819A8101969A83898355
:101E200029813A818B819C81FC01E20FF31F808123
:101E3000882339F70F900F900F900F90CF91DF917B
:101E400008950F931F93DF93CF93CDB7DEB76F97AE
:101E50000FB6F894DEBF0FBECDBF6C8F7D8F8E8F17
:101E60009F8F8C8D9D8DAE8DBF8D0097A105B10587
:101E700021F480E30E94D80DE5C08C8D9D8DAE8D40
:101E8000BF8DBB230CF084C08DE20E94D80D8C8DD9
:101E90009D8DAE8DBF8DB095A095909581959F4FEE
:101EA000AF4FBF4F8C8F9D8FAE8FBF8F80E090E084
:101EB000A0E0BFE38B879C87AD87BE876B857C8561
:101EC0008D859E8520E030E04AE753E40E941F02A2
:101ED000DC01CB018F839887A987BA876F817885CA
:101EE00089859A8520E030E040E85FE30E9479032D
:101EF00088232CF481E090E09E838D833FC06F8126
:101F0000788589859A8520E03FEF4FE757E40E9466
:101F1000190318164CF56B857C858D859E8520E010
:101F200030E040E251E40E941F02DC01CB01BC0121
:101F3000CD010E944900DC01CB019E838D830FC03F
:101F400089E190E09C838B838B819C810197F1F7E1
:101F50009C838B838D819E8101979E838D838D8150
:101F60009E81009769F714C06F81788589859A856D
:101F70000E944900DC01CB019E838D838D819E816F
:101F80009A83898389819A810197F1F79A8389835A
:101F90008AE0FE017296DF01982F1D929A95E9F76B
:101FA000198A2DC08989082F10E08C8D9D8DAE8DEA
:101FB000BF8D2AE030E040E050E0BC01CD010E943E
:101FC000DB17DC01CB01282FCE014296FC01E00F8C
:101FD000F11F20838C8D9D8DAE8DBF8D2AE030E06A
:101FE00040E050E0BC01CD010E94DB17DA01C901DD
:101FF0008C8F9D8FAE8FBF8F89898F5F898B8C8DE2
:102000009D8DAE8DBF8D0097A105B10559F68989CB
:10201000882F90E00197988B8F8710C02F85388983
:10202000CE014296FC01E20FF31F8081805D0E9489
:10203000D80D8F8598890197988B8F878F85988980
:10204000992364F76F960FB6F894DEBF0FBECDBF2D
:10205000CF91DF911F910F910895DF93CF93CDB76B
:10206000DEB761970FB6F894DEBF0FBECDBF888B89
:10207000698B8889853048F48889882331F089897B
:10208000853118F48989882319F480E88F871BC06B
:102090008889813021F4898981588F8714C0888983
:1020A000823021F4898981548F870DC088898330DB
:1020B00021F489898D568F8706C08889843019F468
:1020C00089898D528F878F850E94670E80E090E00E
:1020D000A0E8BFE38B879C87AD87BE876B857C8537
:1020E0008D859E8520E030E04AE753E40E941F0280
:1020F000DC01CB018F839887A987BA876F817885A8
:1021000089859A8520E030E040E85FE30E9479030A
:1021100088232CF481E090E09E838D833FC06F8103
:10212000788589859A8520E03FEF4FE757E40E9444
:10213000190318164CF56B857C858D859E8520E0EE
:1021400030E040E251E40E941F02DC01CB01BC01FF
:10215000CD010E944900DC01CB019E838D830FC01D
:1021600089E190E09C838B838B819C810197F1F7BF
:102170009C838B838D819E8101979E838D838D812E
:102180009E81009769F714C06F81788589859A854B
:102190000E944900DC01CB019E838D838D819E814D
:1021A0009A83898389819A810197F1F79A83898338
:1021B00061960FB6F894DEBF0FBECDBFCF91DF9111
:1021C0000895DF93CF93CDB7DEB764970FB6F89439
:1021D000DEBF0FBECDBF9B8B8A8B6C8B8C89882F0B
:1021E00090E0877090700896880F991F880F991F4C
:1021F000880F991F898B89890E94670E188A1F860C
:102200000FC02F8538898A899B89FC01E20FF31F53
:1022100080810E94D80D8F8598890196988B8F8731
:102220008F8598898830910564F380E80E94670E55
:1022300080E090E0A0E8BFE38B879C87AD87BE87F6
:102240006B857C858D859E8520E030E04AE753E4F0
:102250000E941F02DC01CB018F839887A987BA8770
:102260006F81788589859A8520E030E040E85FE3DA
:102270000E94790388232CF481E090E09E838D8373
:102280003FC06F81788589859A8520E03FEF4FE7D1
:1022900057E40E94190318164CF56B857C858D85D3
:1022A0009E8520E030E040E251E40E941F02DC0104
:1022B000CB01BC01CD010E944900DC01CB019E8312
:1022C0008D830FC089E190E09C838B838B819C81FF
:1022D0000197F1F79C838B838D819E8101979E836B
:1022E0008D838D819E81009769F714C06F817885F9
:1022F00089859A850E944900DC01CB019E838D83EC
:102300008D819E819A83898389819A810197F1F7D2
:102310009A83898364960FB6F894DEBF0FBECDBF53
:10232000CF91DF910895DF93CF930F92CDB7DEB7B2
:10233000898389810E94D80D0F90CF91DF910895F4
:10234000DF93CF93CDB7DEB7E9970FB6F894DEBF32
:102350000FBECDBF89AF89AD282F221F2227221F94
:1023600089E390E060E0422F0E946F0789AD82957B
:10237000869586958370282F217089E390E061E02F
:10238000422F0E946F0789AD829586958770282F0E
:10239000217089E390E062E0422F0E946F0789ADCF
:1023A00082958F70282F217089E390E063E0422F9F
:1023B0000E946F0789E390E065E041E00E946F07AB
:1023C00080E090E0A0E8BFE38DAB9EABAFABB8AFD1
:1023D0006DA97EA98FA998AD20E030E04AE753E4CB
:1023E0000E941F02DC01CB0189AB9AABABABBCAB4B
:1023F00069A97AA98BA99CA920E030E040E85FE3B5
:102400000E94790388232CF481E090E098AB8FA799
:102410003FC069A97AA98BA99CA920E03FEF4FE7AB
:1024200057E40E94190318164CF56DA97EA98FA9CF
:1024300098AD20E030E040E251E40E941F02DC0150
:10244000CB01BC01CD010E944900DC01CB0198AB5E
:102450008FA70FC089E190E09EA78DA78DA59EA5AF
:102460000197F1F79EA78DA78FA598A9019798AB23
:102470008FA78FA598A9009769F714C069A97AA9B1
:102480008BA99CA90E944900DC01CB0198AB8FA7C6
:102490008FA598A99CA78BA78BA59CA50197F1F761
:1024A0009CA78BA789E390E065E040E00E946F075E
:1024B00080E090E0A0E8BFE38FA398A7A9A7BAA700
:1024C0006FA178A589A59AA520E030E04AE753E4FA
:1024D0000E941F02DC01CB018BA39CA3ADA3BEA372
:1024E0006BA17CA18DA19EA120E030E040E85FE3DC
:1024F0000E94790388232CF481E090E09AA389A3B9
:102500003FC06BA17CA18DA19EA120E03FEF4FE7D2
:1025100057E40E94190318164CF56FA178A589A5F8
:102520009AA520E030E040E251E40E941F02DC0165
:10253000CB01BC01CD010E944900DC01CB019AA373
:1025400089A30FC089E190E098A38F8F8F8D98A108
:102550000197F1F798A38F8F89A19AA101979AA368
:1025600089A389A19AA1009769F714C06BA17CA1E6
:102570008DA19EA10E944900DC01CB019AA389A3F1
:1025800089A19AA19E8F8D8F8D8D9E8D0197F1F7D8
:102590009E8F8D8F89AD869586958695282F217083
:1025A00089E390E060E0422F0E946F0789AD869535
:1025B0008695282F217089E390E061E0422F0E94E8
:1025C0006F0789AD8695282F217089E390E062E03E
:1025D000422F0E946F0789AD282F217089E390E078
:1025E00063E0422F0E946F0789E390E065E041E0DD
:1025F0000E946F0780E090E0A0E8BFE3898F9A8F88
:10260000AB8FBC8F698D7A8D8B8D9C8D20E030E0F7
:102610004AE753E40E941F02DC01CB018D8B9E8BA5
:10262000AF8BB88F6D897E898F89988D20E030E0DF
:1026300040E85FE30E94790388232CF481E090E076
:102640009C8B8B8B3FC06D897E898F89988D20E014
:102650003FEF4FE757E40E94190318164CF5698DB8
:102660007A8D8B8D9C8D20E030E040E251E40E9419
:102670001F02DC01CB01BC01CD010E944900DC013D
:10268000CB019C8B8B8B0FC089E190E09A8B898B5F
:1026900089899A890197F1F79A8B898B8B899C8913
:1026A00001979C8B8B8B8B899C89009769F714C051
:1026B0006D897E898F89988D0E944900DC01CB014C
:1026C0009C8B8B8B8B899C89988B8F878F85988926
:1026D0000197F1F7988B8F8789E390E065E040E000
:1026E0000E946F0780E090E0A0E8BFE38B879C87A3
:1026F000AD87BE876B857C858D859E8520E030E02B
:102700004AE753E40E941F02DC01CB018F839887C4
:10271000A987BA876F81788589859A8520E030E01E
:1027200040E85FE30E94790388232CF481E090E085
:102730009E838D833FC06F81788589859A8520E04F
:102740003FEF4FE757E40E94190318164CF56B85CD
:102750007C858D859E8520E030E040E251E40E943A
:102760001F02DC01CB01BC01CD010E944900DC014C
:10277000CB019E838D830FC089E190E09C838B8386
:102780008B819C810197F1F79C838B838D819E8146
:1027900001979E838D838D819E81009769F714C078
:1027A0006F81788589859A850E944900DC01CB017B
:1027B0009E838D838D819E819A83898389819A816D
:1027C0000197F1F79A838983E9960FB6F894DEBFF3
:1027D0000FBECDBFCF91DF910895DF93CF9300D08F
:1027E000CDB7DEB79A838983A2E5B0E0E981FA81AB
:1027F00080818170817081708170982F9295990F7E
:10280000990F907C11968C9111978F7B892B119643
:102810008C93A2E5B0E0E981FA8180818695817090
:10282000817081708170982F990F990F990F11966F
:102830008C911197877F892B11968C931197E98141
:10284000FA818081823029F0E981FA8180818823B0
:1028500031F4E2E5F0E081818068818305C0E2E542
:10286000F0E081818F778183A2E5B0E0E981FA8190
:1028700082818170817081708170982F9295907F94
:1028800011968C9111978F7E892B11968C93A2E5CE
:10289000B0E0E981FA8182818695817081708170D2
:1028A0008170982F9295990F907E11968C91119727
:1028B0008F7D892B11968C93A2E5B0E0E2E5F0E0E4
:1028C0008181982FE981FA8181818F76892B1196F8
:1028D0008C9311971092C0001092BF000F900F9030
:1028E000CF91DF910895DF93CF930F92CDB7DEB7ED
:1028F0008983A2E5B0E0E2E5F0E08181982F89814B
:102900008079892311968C93A2E5B0E0E2E5F0E0AE
:102910008181982F89818F76892B11968C931197BD
:102920001092C0001092BF000F90CF91DF910895D8
:10293000DF93CF93CDB7DEB7A2E5B0E0E2E5F0E0FC
:102940008181807911968C931197CF91DF910895B1
:10295000DF93CF93CDB7DEB78091BF009091C000D9
:10296000CF91DF910895DF93CF93CDB7DEB78091FC
:10297000BB009091BC0001969093BC008093BB007B
:102980002091BB003091BC008091BD009091BE00B1
:102990002817390739F481E08093BA001092BC00FF
:1029A0001092BB00CF91DF910895DF93CF93CDB705
:1029B000DEB763970FB6F894DEBF0FBECDBF6D874D
:1029C0007E878F87988B498BE2E5F0E081818F7657
:1029D0000E947314E2E5F0E08181882F90E08F7609
:1029E00090709B8B8A8B8A899B8999232CF48A8986
:1029F0009B890F969B8B8A8B8A899B899595879556
:102A0000959587959595879595958795AA2797FD8F
:102A1000A095BA2F89879A87AB87BC878D859E85BD
:102A2000AF85B88928EE33E040E050E0BC01CD012D
:102A30000E948717DC01CB0129853A854B855C858F
:102A4000BC01CD010E94B917DA01C9018D839E83B3
:102A5000AF83B8878D819E81AF81B885892F9A2FEA
:102A6000AB2FBB279093BE008093BD008D819E81CC
:102A7000AF81B8859070A070B07089839A83AB8362
:102A8000BC8389819A81AB81BC810097A105B10586
:102A900071F08091BD009091BE0001969093BE00B0
:102AA0008093BD00E2E5F0E089818195808383EB2E
:102AB00094E160E00E946B158091BA008823E1F3F5
:102AC0001092BA0063960FB6F894DEBF0FBECDBF6A
:102AD000CF91DF910895DF93CF9300D00F92CDB7C0
:102AE000DEB79A8389836B838B81882F90E0880F70
:102AF000991FFC01EA54FF4F89819A819183808359
:102B00000F900F900F90CF91DF910895DF93CF93A7
:102B10000F92CDB7DEB78983E2E5F0E08181882F9F
:102B200090E0807B90709595879595958795959584
:102B300087959595879582309105E9F48981853649
:102B4000D0F4E2E5F0E08981482F50E0CA019C0111
:102B5000220F331FC9019695982F8827979587953F
:102B6000821B930B840F951F24E630E0B9010E946D
:102B7000A617CB018287E2E5F0E08181882F90E003
:102B8000807B907095958795959587959595879578
:102B90009595879583309105F1F489818536D8F430
:102BA000E2E5F0E08981482F50E0CA019C01220F44
:102BB000331FC9019695982F882797958795821B73
:102BC000930B840F951F24E630E0B9010E94A617ED
:102BD000CB01809582870F90CF91DF9108950F935D
:102BE0001F93DF93CF930F92CDB7DEB78983E2E5D2
:102BF000F0E08181882F90E0807B9070959587959B
:102C000095958795959587959595879582309105AA
:102C1000F1F402E510E08981882F90E0A0E0B0E0B7
:102C20002FEF30E040E050E0BC01CD010E9487175B
:102C3000DC01CB0124E630E040E050E0BC01CD01F6
:102C40000E94B917DA01C901F801828730C0E2E5B4
:102C5000F0E08181882F90E0807B9070959587953A
:102C60009595879595958795959587958330910549
:102C7000F1F402E510E08981882F90E0A0E0B0E057
:102C80002FEF30E040E050E0BC01CD010E948717FB
:102C9000DC01CB0124E630E040E050E0BC01CD0196
:102CA0000E94B917DA01C9018095F80182870F9057
:102CB000CF91DF911F910F9108951F920F920FB640
:102CC0000F9211242F933F934F935F936F937F93B2
:102CD0008F939F93AF93BF93EF93FF93DF93CF9324
:102CE000CDB7DEB78091BF009091C0000196909360
:102CF000C0008093BF008091B6009091B70000970C
:102D000029F0E091B600F091B7000995CF91DF91DD
:102D1000FF91EF91BF91AF919F918F917F916F91B3
:102D20005F914F913F912F910F900FBE0F901F9089
:102D300018951F920F920FB60F9211242F933F9365
:102D40004F935F936F937F938F939F93AF93BF93B3
:102D5000EF93FF93DF93CF93CDB7DEB78091B800A9
:102D60009091B900009729F0E091B800F091B90076
:102D70000995CF91DF91FF91EF91BF91AF919F9115
:102D80008F917F916F915F914F913F912F910F9014
:102D90000FBE0F901F901895DF93CF93CDB7DEB77E
:102DA00061970FB6F894DEBF0FBECDBF0E94860AB2
:102DB0000E94E5080E94A30580E690E00E94F60EBE
:102DC000188A1F861AC08F858F5F8F870E9405091A
:102DD000898B89898D33A1F08889882F90E09C01A7
:102DE000220F331FC901880F991F880F991F820F67
:102DF000931F982F8989890F888B8F85833018F3CB
:102E00008889882F90E0A0E0B0E0BC01CD010E944D
:102E1000210F888961E00E94F20580E090E8ABE331
:102E2000B5E48B879C87AD87BE876B857C858D8558
:102E30009E8520E030E04AE753E40E941F02DC0157
:102E4000CB018F839887A987BA876F817885898519
:102E50009A8520E030E040E85FE30E947903882310
:102E60002CF481E090E09E838D833FC06F81788554
:102E700089859A8520E03FEF4FE757E40E941903C8
:102E800018164CF56B857C858D859E8520E030E09D
:102E900040E251E40E941F02DC01CB01BC01CD01E4
:102EA0000E944900DC01CB019E838D830FC089E124
:102EB00090E09C838B838B819C810197F1F79C83AD
:102EC0008B838D819E8101979E838D838D819E81D1
:102ED000009769F714C06F81788589859A850E946B
:102EE0004900DC01CB019E838D838D819E819A8375
:102EF000898389819A810197F1F79A83898381E097
:102F00000E94670E80E060E00E942D1055CF629F06
:102F1000D001739FF001829FE00DF11D649FE00DD1
:102F2000F11D929FF00D839FF00D749FF00D659F32
:102F3000F00D9927729FB00DE11DF91F639FB00D31
:102F4000E11DF91FBD01CF011124089597FB092E42
:102F500007260AD077FD04D049D006D000201AF405
:102F6000709561957F4F0895F6F7909581959F4FE5
:102F70000895A1E21A2EAA1BBB1BFD010DC0AA1FBA
:102F8000BB1FEE1FFF1FA217B307E407F50720F0D2
:102F9000A21BB30BE40BF50B661F771F881F991F4D
:102FA0001A9469F760957095809590959B01AC0196
:102FB000BD01CF01089597FB092E05260ED057FDC0
:102FC00004D0D7DF0AD0001C38F4509540953095D6
:102FD00021953F4F4F4F5F4F0895F6F7909580959D
:102FE000709561957F4F8F4F9F4F0895AA1BBB1B14
:102FF00051E107C0AA1FBB1FA617B70710F0A61BF9
:10300000B70B881F991F5A95A9F780959095BC0119
:10301000CD0108952F923F924F925F926F927F92CF
:103020008F929F92AF92BF92CF92DF92EF92FF92D8
:103030000F931F93CF93DF93CDB7DEB7CA1BDB0B84
:103040000FB6F894DEBF0FBECDBF09942A88398829
:1030500048885F846E847D848C849B84AA84B98430
:10306000C884DF80EE80FD800C811B81AA81B9813C
:10307000CE0FD11D0FB6F894DEBF0FBECDBFED0150
:063080000895F894FFCF53
:10308600656E7465722064757479206379636C6506
:103096002020202020656E6465642077697468208E
:1030A6003D203A2000000000000000000007000854
:1030B6000009002F000400050006002A0001000296
:1030C6000003002D00200000003D002B000302033A
:00000001FF
